{
  "contractName": "PaymentProcessor",
  "abi": [
    {
      "inputs": [
        {
          "internalType": "address",
          "name": "bursaryAddress",
          "type": "address"
        },
        {
          "internalType": "address",
          "name": "UJTokenAddress",
          "type": "address"
        }
      ],
      "stateMutability": "nonpayable",
      "type": "constructor"
    },
    {
      "anonymous": false,
      "inputs": [
        {
          "indexed": false,
          "internalType": "address",
          "name": "student_payer",
          "type": "address"
        },
        {
          "indexed": false,
          "internalType": "uint256",
          "name": "amount",
          "type": "uint256"
        },
        {
          "indexed": false,
          "internalType": "uint256",
          "name": "paymentId",
          "type": "uint256"
        },
        {
          "indexed": false,
          "internalType": "uint256",
          "name": "date",
          "type": "uint256"
        }
      ],
      "name": "PaymentDone",
      "type": "event"
    },
    {
      "inputs": [],
      "name": "UJToken",
      "outputs": [
        {
          "internalType": "contract IERC20",
          "name": "",
          "type": "address"
        }
      ],
      "stateMutability": "view",
      "type": "function",
      "constant": true
    },
    {
      "inputs": [],
      "name": "schBursary",
      "outputs": [
        {
          "internalType": "address",
          "name": "",
          "type": "address"
        }
      ],
      "stateMutability": "view",
      "type": "function",
      "constant": true
    },
    {
      "inputs": [
        {
          "internalType": "uint256",
          "name": "_amount",
          "type": "uint256"
        },
        {
          "internalType": "uint256",
          "name": "_paymentId",
          "type": "uint256"
        }
      ],
      "name": "pay",
      "outputs": [],
      "stateMutability": "payable",
      "type": "function",
      "payable": true
    }
  ],
  "bytecode": "0x608060405234801561001057600080fd5b506040516105a93803806105a9833981810160405281019061003291906100cf565b816000806101000a81548173ffffffffffffffffffffffffffffffffffffffff021916908373ffffffffffffffffffffffffffffffffffffffff16021790555080600160006101000a81548173ffffffffffffffffffffffffffffffffffffffff021916908373ffffffffffffffffffffffffffffffffffffffff1602179055505050610154565b6000815190506100c98161013d565b92915050565b600080604083850312156100e257600080fd5b60006100f0858286016100ba565b9250506020610101858286016100ba565b9150509250929050565b60006101168261011d565b9050919050565b600073ffffffffffffffffffffffffffffffffffffffff82169050919050565b6101468161010b565b811461015157600080fd5b50565b610446806101636000396000f3fe6080604052600436106100345760003560e01c80638555b65914610039578063ac17cf7e14610064578063ef48eee61461008f575b600080fd5b34801561004557600080fd5b5061004e6100ab565b60405161005b919061035b565b60405180910390f35b34801561007057600080fd5b506100796100d1565b60405161008691906102c4565b60405180910390f35b6100a960048036038101906100a4919061025b565b6100f5565b005b600160009054906101000a900473ffffffffffffffffffffffffffffffffffffffff1681565b60008054906101000a900473ffffffffffffffffffffffffffffffffffffffff1681565b600160009054906101000a900473ffffffffffffffffffffffffffffffffffffffff1673ffffffffffffffffffffffffffffffffffffffff166323b872dd3360008054906101000a900473ffffffffffffffffffffffffffffffffffffffff16856040518463ffffffff1660e01b8152600401610174939291906102df565b602060405180830381600087803b15801561018e57600080fd5b505af11580156101a2573d6000803e3d6000fd5b505050506040513d601f19601f820116820180604052508101906101c69190610232565b507f78eaebe37a28490ff43ed0e95bdc47de1587156ac0069b652e1d2d9f42464e98338383426040516101fc9493929190610316565b60405180910390a15050565b600081519050610217816103e2565b92915050565b60008135905061022c816103f9565b92915050565b60006020828403121561024457600080fd5b600061025284828501610208565b91505092915050565b6000806040838503121561026e57600080fd5b600061027c8582860161021d565b925050602061028d8582860161021d565b9150509250929050565b6102a081610376565b82525050565b6102af816103be565b82525050565b6102be816103b4565b82525050565b60006020820190506102d96000830184610297565b92915050565b60006060820190506102f46000830186610297565b6103016020830185610297565b61030e60408301846102b5565b949350505050565b600060808201905061032b6000830187610297565b61033860208301866102b5565b61034560408301856102b5565b61035260608301846102b5565b95945050505050565b600060208201905061037060008301846102a6565b92915050565b600061038182610394565b9050919050565b60008115159050919050565b600073ffffffffffffffffffffffffffffffffffffffff82169050919050565b6000819050919050565b60006103c9826103d0565b9050919050565b60006103db82610394565b9050919050565b6103eb81610388565b81146103f657600080fd5b50565b610402816103b4565b811461040d57600080fd5b5056fea264697066735822122089127e238018e812b328b34bc3936689f5ae33174dec06588849dccf934ed38c64736f6c63430008040033",
  "immutableReferences": {},
  "source": " // SPDX-License-Identifier: MIT\n pragma solidity ^0.8.0;\n\nimport '@openzeppelin/contracts/token/ERC20/IERC20.sol';\n// import 'github.com/OpenZeppelin/openzeppelin-contracts/contracts/token/ERC20/IERC20.sol';\n\n/**\n * The PaymentProcessor contract does this and that...\n */\ncontract PaymentProcessor {\n\n    address public schBursary;\n    // uint  _amount;\n    IERC20 public UJToken;\n\n    event PaymentDone(\n        address student_payer,\n        uint amount,\n        uint paymentId,\n        uint date\n    );\n\n  constructor(address bursaryAddress, address UJTokenAddress) {\n    schBursary = bursaryAddress;\n    UJToken = IERC20(UJTokenAddress);\n\n  }\n\n\n\n  function pay(uint _amount, uint _paymentId) external payable{\n    UJToken.transferFrom(msg.sender, schBursary, _amount);\n    emit PaymentDone(msg.sender, _amount, _paymentId, block.timestamp);\n  }\n\n}\n\n\n",
  "sourcePath": "/home/abbracx/Documents/Project/contracts/PaymentProcessor.sol",
  "compiler": {
    "name": "solc",
    "version": "0.8.4+commit.c7e474f2.Emscripten.clang"
  },
  "schemaVersion": "3.3.4",
  "updatedAt": "2021-06-14T18:55:32.783Z",
  "networkType": "ethereum",
  "devdoc": {
    "kind": "dev",
    "methods": {},
    "version": 1
  },
  "userdoc": {
    "kind": "user",
    "methods": {},
    "notice": "The PaymentProcessor contract does this and that...",
    "version": 1
  }
}