{
  "contractName": "Student",
  "abi": [
    {
      "inputs": [
        {
          "internalType": "contract PaymentProcessor",
          "name": "_payment",
          "type": "address"
        }
      ],
      "stateMutability": "nonpayable",
      "type": "constructor"
    },
    {
      "inputs": [],
      "name": "payment",
      "outputs": [
        {
          "internalType": "contract PaymentProcessor",
          "name": "",
          "type": "address"
        }
      ],
      "stateMutability": "view",
      "type": "function"
    },
    {
      "inputs": [],
      "name": "student_address",
      "outputs": [
        {
          "internalType": "address",
          "name": "",
          "type": "address"
        }
      ],
      "stateMutability": "view",
      "type": "function"
    },
    {
      "inputs": [
        {
          "internalType": "string",
          "name": "_mat_Number",
          "type": "string"
        },
        {
          "internalType": "string",
          "name": "_name",
          "type": "string"
        }
      ],
      "name": "createStudent",
      "outputs": [],
      "stateMutability": "nonpayable",
      "type": "function"
    },
    {
      "inputs": [
        {
          "internalType": "string",
          "name": "_mat_Number",
          "type": "string"
        }
      ],
      "name": "getStudentProfile",
      "outputs": [
        {
          "internalType": "string",
          "name": "",
          "type": "string"
        },
        {
          "internalType": "string",
          "name": "",
          "type": "string"
        }
      ],
      "stateMutability": "view",
      "type": "function"
    },
    {
      "inputs": [
        {
          "internalType": "uint256",
          "name": "paymentId",
          "type": "uint256"
        }
      ],
      "name": "payFees",
      "outputs": [],
      "stateMutability": "payable",
      "type": "function"
    }
  ],
  "bytecode": "0x608060405234801561001057600080fd5b50604051610d74380380610d748339818101604052810190610032919061008e565b80600160006101000a81548173ffffffffffffffffffffffffffffffffffffffff021916908373ffffffffffffffffffffffffffffffffffffffff16021790555050610112565b600081519050610088816100fb565b92915050565b6000602082840312156100a057600080fd5b60006100ae84828501610079565b91505092915050565b60006100c2826100db565b9050919050565b60006100d4826100b7565b9050919050565b600073ffffffffffffffffffffffffffffffffffffffff82169050919050565b610104816100c9565b811461010f57600080fd5b50565b610c53806101216000396000f3fe60806040526004361061004a5760003560e01c80633084d7351461004f5780633b1c2b341461006b57806342f6487a146100a95780637c91772a146100d4578063e7b549dc146100fd575b600080fd5b61006960048036038101906100649190610817565b610128565b005b34801561007757600080fd5b50610092600480360381019061008d919061076a565b610204565b6040516100a09291906108ff565b60405180910390f35b3480156100b557600080fd5b506100be610460565b6040516100cb91906108e4565b60405180910390f35b3480156100e057600080fd5b506100fb60048036038101906100f691906107ab565b610486565b005b34801561010957600080fd5b50610112610605565b60405161011f91906108c9565b60405180910390f35b600034101561016c576040517f08c379a000000000000000000000000000000000000000000000000000000000815260040161016390610936565b60405180910390fd5b6000349050600160009054906101000a900473ffffffffffffffffffffffffffffffffffffffff1673ffffffffffffffffffffffffffffffffffffffff1663ef48eee682846040518363ffffffff1660e01b81526004016101ce929190610956565b600060405180830381600087803b1580156101e857600080fd5b505af11580156101fc573d6000803e3d6000fd5b505050505050565b6060806000610211610629565b600091505b6002805490508210156103e8576002828154811061025d577f4e487b7100000000000000000000000000000000000000000000000000000000600052603260045260246000fd5b906000526020600020906003020160405180606001604052908160008201805461028690610a93565b80601f01602080910402602001604051908101604052809291908181526020018280546102b290610a93565b80156102ff5780601f106102d4576101008083540402835291602001916102ff565b820191906000526020600020905b8154815290600101906020018083116102e257829003601f168201915b5050505050815260200160018201805461031890610a93565b80601f016020809104026020016040519081016040528092919081815260200182805461034490610a93565b80156103915780601f1061036657610100808354040283529160200191610391565b820191906000526020600020905b81548152906001019060200180831161037457829003601f168201915b505050505081526020016002820154815250509050848051906020012081600001518051906020012014156103d5578060000151816020015193509350505061045b565b81806103e090610af6565b925050610216565b6040518060400160405280600981526020017f4e4f5420464f554e4400000000000000000000000000000000000000000000008152506040518060400160405280600981526020017f4e4f5420464f554e4400000000000000000000000000000000000000000000008152509350935050505b915091565b600160009054906101000a900473ffffffffffffffffffffffffffffffffffffffff1681565b6000604051806060016040528084815260200183815260200160008152509050336000806101000a81548173ffffffffffffffffffffffffffffffffffffffff021916908373ffffffffffffffffffffffffffffffffffffffff16021790555080600360008060009054906101000a900473ffffffffffffffffffffffffffffffffffffffff1673ffffffffffffffffffffffffffffffffffffffff1673ffffffffffffffffffffffffffffffffffffffff168152602001908152602001600020600082015181600001908051906020019061056392919061064a565b50602082015181600101908051906020019061058092919061064a565b5060408201518160020155905050600281908060018154018082558091505060019003906000526020600020906003020160009091909190915060008201518160000190805190602001906105d692919061064a565b5060208201518160010190805190602001906105f392919061064a565b50604082015181600201555050505050565b60008054906101000a900473ffffffffffffffffffffffffffffffffffffffff1681565b60405180606001604052806060815260200160608152602001600081525090565b82805461065690610a93565b90600052602060002090601f01602090048101928261067857600085556106bf565b82601f1061069157805160ff19168380011785556106bf565b828001600101855582156106bf579182015b828111156106be5782518255916020019190600101906106a3565b5b5090506106cc91906106d0565b5090565b5b808211156106e95760008160009055506001016106d1565b5090565b60006107006106fb846109a4565b61097f565b90508281526020810184848401111561071857600080fd5b610723848285610a51565b509392505050565b600082601f83011261073c57600080fd5b813561074c8482602086016106ed565b91505092915050565b60008135905061076481610c06565b92915050565b60006020828403121561077c57600080fd5b600082013567ffffffffffffffff81111561079657600080fd5b6107a28482850161072b565b91505092915050565b600080604083850312156107be57600080fd5b600083013567ffffffffffffffff8111156107d857600080fd5b6107e48582860161072b565b925050602083013567ffffffffffffffff81111561080157600080fd5b61080d8582860161072b565b9150509250929050565b60006020828403121561082957600080fd5b600061083784828501610755565b91505092915050565b610849816109f1565b82525050565b61085881610a2d565b82525050565b6000610869826109d5565b61087381856109e0565b9350610883818560208601610a60565b61088c81610bcc565b840191505092915050565b60006108a46013836109e0565b91506108af82610bdd565b602082019050919050565b6108c381610a23565b82525050565b60006020820190506108de6000830184610840565b92915050565b60006020820190506108f9600083018461084f565b92915050565b60006040820190508181036000830152610919818561085e565b9050818103602083015261092d818461085e565b90509392505050565b6000602082019050818103600083015261094f81610897565b9050919050565b600060408201905061096b60008301856108ba565b61097860208301846108ba565b9392505050565b600061098961099a565b90506109958282610ac5565b919050565b6000604051905090565b600067ffffffffffffffff8211156109bf576109be610b9d565b5b6109c882610bcc565b9050602081019050919050565b600081519050919050565b600082825260208201905092915050565b60006109fc82610a03565b9050919050565b600073ffffffffffffffffffffffffffffffffffffffff82169050919050565b6000819050919050565b6000610a3882610a3f565b9050919050565b6000610a4a82610a03565b9050919050565b82818337600083830152505050565b60005b83811015610a7e578082015181840152602081019050610a63565b83811115610a8d576000848401525b50505050565b60006002820490506001821680610aab57607f821691505b60208210811415610abf57610abe610b6e565b5b50919050565b610ace82610bcc565b810181811067ffffffffffffffff82111715610aed57610aec610b9d565b5b80604052505050565b6000610b0182610a23565b91507fffffffffffffffffffffffffffffffffffffffffffffffffffffffffffffffff821415610b3457610b33610b3f565b5b600182019050919050565b7f4e487b7100000000000000000000000000000000000000000000000000000000600052601160045260246000fd5b7f4e487b7100000000000000000000000000000000000000000000000000000000600052602260045260246000fd5b7f4e487b7100000000000000000000000000000000000000000000000000000000600052604160045260246000fd5b6000601f19601f8301169050919050565b7f4e6f7420456e6f7567682045746865722e2e2e00000000000000000000000000600082015250565b610c0f81610a23565b8114610c1a57600080fd5b5056fea2646970667358221220aac874c59d034d2e943c3b6f44e254a6a8023ec787190bfa9d2ff1e3b7a8af8f64736f6c63430008040033",
  "immutableReferences": {},
  "source": " // SPDX-License-Identifier: MIT\n\npragma solidity ^0.8.0;\n\n/**\n * The Student contract does this and that...\n */\n import \"./PaymentProcessor.sol\";\n\ncontract Student {\n\n    address public student_address;\n\n    struct StudentInfo {\n        string mat_Num;\n        string name;\n        uint token_balance;\n    }\n\n    PaymentProcessor public payment;\n\n    StudentInfo [] list_of_student;\n    mapping (address => StudentInfo) Students;\n\n    constructor(PaymentProcessor _payment) {\n      payment = _payment;\n    }\n\n    function createStudent (string memory _mat_Number, string memory _name) external {\n      StudentInfo memory studentInfo = StudentInfo(_mat_Number, _name, 0);\n      student_address = msg.sender;\n      Students[student_address] = studentInfo;\n      list_of_student.push(studentInfo);\n    }\n\n    function getStudentProfile (string memory _mat_Number) external view returns(string memory, string memory) {\n        //copy the data into memory\n        uint i;\n        StudentInfo memory info;\n        for(i=0; i<list_of_student.length; i++){\n           info = list_of_student[i];\n\n            // breaking the struct into tuples as stated in solidity\n           if(keccak256(bytes(info.mat_Num)) == keccak256(bytes(_mat_Number))) {\n              return (info.mat_Num, info.name);\n          }\n        }\n\n\n         // breaking the struct into tuples as stated in solidity\n        return(\"NOT FOUND\", \"NOT FOUND\");\n    }\n\n    modifier checkValue() {\n      require (msg.value >= 0, \"Not Enough Ether...\");\n      _;\n    }\n\n    function payFees(uint paymentId) external payable checkValue(){\n      uint amount = msg.value;\n      payment.pay(amount, paymentId);\n    }\n\n    // function getStudentInfo (string memory _mat_Number) public returns(string memory, string memory) {\n    //     //copy the data into memory\n    //     uint i;\n    //     StudentInfo memory info\n    //     for(i=0; i<list_of_student.length; i++){\n    //        info = list_of_student[i];\n\n    //         // breaking the struct into tuples as stated in solidity\n    //        if(info.mat_Number == _mat_Number) return (info.name, info.mat_Number);\n    //     }\n\n\n    //      // breaking the struct into tuples as stated in solidity\n    //     return(\"NOT FOUND\", \"NOT FOUND\");\n    // }\n\n\n}\n\n",
  "sourcePath": "/home/abbracx/Documents/Project/contracts/Student.sol",
  "compiler": {
    "name": "solc",
    "version": "0.8.4+commit.c7e474f2.Emscripten.clang"
  },
  "schemaVersion": "3.3.4",
  "updatedAt": "2021-06-14T18:54:55.583Z",
  "devdoc": {
    "kind": "dev",
    "methods": {},
    "version": 1
  },
  "userdoc": {
    "kind": "user",
    "methods": {},
    "version": 1
  }
}